{
  "contractName": "SupplyChain",
  "abi": [
    {
      "constant": true,
      "inputs": [
        {
          "name": "account",
          "type": "address"
        }
      ],
      "name": "isManufacturer",
      "outputs": [
        {
          "name": "",
          "type": "bool"
        }
      ],
      "payable": false,
      "stateMutability": "view",
      "type": "function"
    },
    {
      "constant": false,
      "inputs": [],
      "name": "renouncePharmacist",
      "outputs": [],
      "payable": false,
      "stateMutability": "nonpayable",
      "type": "function"
    },
    {
      "constant": false,
      "inputs": [
        {
          "name": "account",
          "type": "address"
        }
      ],
      "name": "addManufacturer",
      "outputs": [],
      "payable": false,
      "stateMutability": "nonpayable",
      "type": "function"
    },
    {
      "constant": false,
      "inputs": [],
      "name": "renounceDistributor",
      "outputs": [],
      "payable": false,
      "stateMutability": "nonpayable",
      "type": "function"
    },
    {
      "constant": false,
      "inputs": [],
      "name": "renounceOwnership",
      "outputs": [],
      "payable": false,
      "stateMutability": "nonpayable",
      "type": "function"
    },
    {
      "constant": false,
      "inputs": [
        {
          "name": "account",
          "type": "address"
        }
      ],
      "name": "addDistributor",
      "outputs": [],
      "payable": false,
      "stateMutability": "nonpayable",
      "type": "function"
    },
    {
      "constant": true,
      "inputs": [
        {
          "name": "account",
          "type": "address"
        }
      ],
      "name": "isPharmacist",
      "outputs": [
        {
          "name": "",
          "type": "bool"
        }
      ],
      "payable": false,
      "stateMutability": "view",
      "type": "function"
    },
    {
      "constant": true,
      "inputs": [],
      "name": "owner",
      "outputs": [
        {
          "name": "",
          "type": "address"
        }
      ],
      "payable": false,
      "stateMutability": "view",
      "type": "function"
    },
    {
      "constant": true,
      "inputs": [
        {
          "name": "account",
          "type": "address"
        }
      ],
      "name": "isDistributor",
      "outputs": [
        {
          "name": "",
          "type": "bool"
        }
      ],
      "payable": false,
      "stateMutability": "view",
      "type": "function"
    },
    {
      "constant": true,
      "inputs": [],
      "name": "isOwner",
      "outputs": [
        {
          "name": "",
          "type": "bool"
        }
      ],
      "payable": false,
      "stateMutability": "view",
      "type": "function"
    },
    {
      "constant": false,
      "inputs": [
        {
          "name": "account",
          "type": "address"
        }
      ],
      "name": "addPharmacist",
      "outputs": [],
      "payable": false,
      "stateMutability": "nonpayable",
      "type": "function"
    },
    {
      "constant": false,
      "inputs": [],
      "name": "renounceManufacturer",
      "outputs": [],
      "payable": false,
      "stateMutability": "nonpayable",
      "type": "function"
    },
    {
      "constant": false,
      "inputs": [
        {
          "name": "newOwner",
          "type": "address"
        }
      ],
      "name": "transferOwnership",
      "outputs": [],
      "payable": false,
      "stateMutability": "nonpayable",
      "type": "function"
    },
    {
      "inputs": [],
      "payable": true,
      "stateMutability": "payable",
      "type": "constructor"
    },
    {
      "anonymous": false,
      "inputs": [
        {
          "indexed": false,
          "name": "ndc",
          "type": "string"
        }
      ],
      "name": "Ordered",
      "type": "event"
    },
    {
      "anonymous": false,
      "inputs": [
        {
          "indexed": false,
          "name": "ndc",
          "type": "string"
        }
      ],
      "name": "Manufactured",
      "type": "event"
    },
    {
      "anonymous": false,
      "inputs": [
        {
          "indexed": false,
          "name": "ndc",
          "type": "string"
        }
      ],
      "name": "MfrDispatched",
      "type": "event"
    },
    {
      "anonymous": false,
      "inputs": [
        {
          "indexed": false,
          "name": "ndc",
          "type": "string"
        }
      ],
      "name": "DistrReceived",
      "type": "event"
    },
    {
      "anonymous": false,
      "inputs": [
        {
          "indexed": false,
          "name": "ndc",
          "type": "string"
        }
      ],
      "name": "DistrDispatched",
      "type": "event"
    },
    {
      "anonymous": false,
      "inputs": [
        {
          "indexed": false,
          "name": "ndc",
          "type": "string"
        }
      ],
      "name": "PharReceived",
      "type": "event"
    },
    {
      "anonymous": false,
      "inputs": [
        {
          "indexed": false,
          "name": "ndc",
          "type": "string"
        }
      ],
      "name": "Dispensed",
      "type": "event"
    },
    {
      "anonymous": false,
      "inputs": [
        {
          "indexed": false,
          "name": "pharmacist",
          "type": "address"
        }
      ],
      "name": "PharmacistAdded",
      "type": "event"
    },
    {
      "anonymous": false,
      "inputs": [
        {
          "indexed": false,
          "name": "pharmacist",
          "type": "address"
        }
      ],
      "name": "PharmacistRemoved",
      "type": "event"
    },
    {
      "anonymous": false,
      "inputs": [
        {
          "indexed": false,
          "name": "distributor",
          "type": "address"
        }
      ],
      "name": "DistributorAdded",
      "type": "event"
    },
    {
      "anonymous": false,
      "inputs": [
        {
          "indexed": false,
          "name": "distributor",
          "type": "address"
        }
      ],
      "name": "DistributorRemoved",
      "type": "event"
    },
    {
      "anonymous": false,
      "inputs": [
        {
          "indexed": false,
          "name": "manufacturer",
          "type": "address"
        }
      ],
      "name": "ManufacturerAdded",
      "type": "event"
    },
    {
      "anonymous": false,
      "inputs": [
        {
          "indexed": false,
          "name": "manufacturer",
          "type": "address"
        }
      ],
      "name": "ManufacturerRemoved",
      "type": "event"
    },
    {
      "anonymous": false,
      "inputs": [
        {
          "indexed": true,
          "name": "oldOwner",
          "type": "address"
        },
        {
          "indexed": true,
          "name": "newOwner",
          "type": "address"
        }
      ],
      "name": "TransferOwnership",
      "type": "event"
    },
    {
      "constant": false,
      "inputs": [],
      "name": "kill",
      "outputs": [],
      "payable": false,
      "stateMutability": "nonpayable",
      "type": "function"
    },
    {
      "constant": false,
      "inputs": [
        {
          "name": "_ndc",
          "type": "string"
        },
        {
          "name": "_manufacturerID",
          "type": "address"
        },
        {
          "name": "_productID",
          "type": "string"
        },
        {
          "name": "_productDescription",
          "type": "string"
        },
        {
          "name": "_productFormName",
          "type": "string"
        },
        {
          "name": "_productLabelerName",
          "type": "string"
        }
      ],
      "name": "manufactureItem",
      "outputs": [],
      "payable": false,
      "stateMutability": "nonpayable",
      "type": "function"
    },
    {
      "constant": false,
      "inputs": [
        {
          "name": "_ndc",
          "type": "string"
        }
      ],
      "name": "dispatchItemToDistr",
      "outputs": [],
      "payable": false,
      "stateMutability": "nonpayable",
      "type": "function"
    },
    {
      "constant": false,
      "inputs": [
        {
          "name": "_ndc",
          "type": "string"
        }
      ],
      "name": "distrReceiveItem",
      "outputs": [],
      "payable": false,
      "stateMutability": "nonpayable",
      "type": "function"
    },
    {
      "constant": false,
      "inputs": [
        {
          "name": "_ndc",
          "type": "string"
        }
      ],
      "name": "dispatchItemToPharmacist",
      "outputs": [],
      "payable": false,
      "stateMutability": "nonpayable",
      "type": "function"
    },
    {
      "constant": false,
      "inputs": [
        {
          "name": "_ndc",
          "type": "string"
        }
      ],
      "name": "pharReceiveItem",
      "outputs": [],
      "payable": false,
      "stateMutability": "nonpayable",
      "type": "function"
    },
    {
      "constant": false,
      "inputs": [
        {
          "name": "_ndc",
          "type": "string"
        }
      ],
      "name": "dispenseToConsumer",
      "outputs": [],
      "payable": false,
      "stateMutability": "nonpayable",
      "type": "function"
    },
    {
      "constant": true,
      "inputs": [
        {
          "name": "_ndc",
          "type": "string"
        }
      ],
      "name": "fetchItemBufferOne",
      "outputs": [
        {
          "name": "itemSKU",
          "type": "uint256"
        },
        {
          "name": "itemNDC",
          "type": "string"
        },
        {
          "name": "ownerID",
          "type": "address"
        },
        {
          "name": "manufacturerID",
          "type": "address"
        },
        {
          "name": "productID",
          "type": "string"
        },
        {
          "name": "productDescription",
          "type": "string"
        },
        {
          "name": "productFormName",
          "type": "string"
        },
        {
          "name": "productLabelerName",
          "type": "string"
        }
      ],
      "payable": false,
      "stateMutability": "view",
      "type": "function"
    },
    {
      "constant": true,
      "inputs": [
        {
          "name": "_ndc",
          "type": "string"
        }
      ],
      "name": "fetchItemBufferTwo",
      "outputs": [
        {
          "name": "itemSKU",
          "type": "uint256"
        },
        {
          "name": "itemNDC",
          "type": "string"
        },
        {
          "name": "itemState",
          "type": "uint256"
        },
        {
          "name": "distributorID",
          "type": "address"
        },
        {
          "name": "pharmacistID",
          "type": "address"
        }
      ],
      "payable": false,
      "stateMutability": "view",
      "type": "function"
    }
  ],
  "bytecode": "0x6080604052336000806101000a81548173ffffffffffffffffffffffffffffffffffffffff021916908373ffffffffffffffffffffffffffffffffffffffff1602179055506000809054906101000a900473ffffffffffffffffffffffffffffffffffffffff1673ffffffffffffffffffffffffffffffffffffffff16600073ffffffffffffffffffffffffffffffffffffffff167f5c486528ec3e3f0ea91181cff8116f02bfa350e03b8b6f12e00765adbb5af85c60405160405180910390a3620000da336200011c640100000000026401000000009004565b620000f433620001a6640100000000026401000000009004565b6200010e3362000230640100000000026401000000009004565b600160048190555062000412565b62000140816001620002ba64010000000002620035df179091906401000000009004565b7f561138658ca49a8540dc70dcfe64c9026c1c5b9344642242dd6562970f9c127881604051808273ffffffffffffffffffffffffffffffffffffffff1673ffffffffffffffffffffffffffffffffffffffff16815260200191505060405180910390a150565b620001ca816002620002ba64010000000002620035df179091906401000000009004565b7fddbf200aa634dc3fb81cfd68583dd1040d1c751d335e1d86b631bde3e977fea881604051808273ffffffffffffffffffffffffffffffffffffffff1673ffffffffffffffffffffffffffffffffffffffff16815260200191505060405180910390a150565b62000254816003620002ba64010000000002620035df179091906401000000009004565b7f5a4264410853372bdd7255ebc9624cb523fc039cd6f9f1855165194738125f6381604051808273ffffffffffffffffffffffffffffffffffffffff1673ffffffffffffffffffffffffffffffffffffffff16815260200191505060405180910390a150565b600073ffffffffffffffffffffffffffffffffffffffff168173ffffffffffffffffffffffffffffffffffffffff1614151515620002f757600080fd5b6200031282826200037d640100000000026401000000009004565b1515156200031f57600080fd5b60018260000160008373ffffffffffffffffffffffffffffffffffffffff1673ffffffffffffffffffffffffffffffffffffffff16815260200190815260200160002060006101000a81548160ff0219169083151502179055505050565b60008073ffffffffffffffffffffffffffffffffffffffff168273ffffffffffffffffffffffffffffffffffffffff1614151515620003bb57600080fd5b8260000160008373ffffffffffffffffffffffffffffffffffffffff1673ffffffffffffffffffffffffffffffffffffffff16815260200190815260200160002060009054906101000a900460ff16905092915050565b61376080620004226000396000f300608060405260043610610128576000357c0100000000000000000000000000000000000000000000000000000000900463ffffffff168063037fd5831461012d57806315baa59a1461019657806317d4a491146101ff57806341c0e1b51461025a5780635ae63247146102715780635f8a5afa14610288578063644241db146102cb578063715018a6146102e25780637250e224146102f95780637e35159a1461033c57806382946ee2146104925780638c8ad6e0146104ed5780638da5cb5b146105565780638f0c86fa146105ad5780638f32d59b14610608578063bd7b8d9914610637578063c09e2693146106a0578063ca18e5a9146106e3578063ce7a0952146109e2578063de07f34e14610b83578063f2fde38b14610b9a578063fa8dfd5214610bdd575b600080fd5b34801561013957600080fd5b50610194600480360381019080803590602001908201803590602001908080601f0160208091040260200160405190810160405280939291908181526020018383808284378201915050505050509192919290505050610c46565b005b3480156101a257600080fd5b506101fd600480360381019080803590602001908201803590602001908080601f0160208091040260200160405190810160405280939291908181526020018383808284378201915050505050509192919290505050611082565b005b34801561020b57600080fd5b50610240600480360381019080803573ffffffffffffffffffffffffffffffffffffffff169060200190929190505050611499565b604051808215151515815260200191505060405180910390f35b34801561026657600080fd5b5061026f6114b6565b005b34801561027d57600080fd5b506102866114e9565b005b34801561029457600080fd5b506102c9600480360381019080803573ffffffffffffffffffffffffffffffffffffffff1690602001909291905050506114f4565b005b3480156102d757600080fd5b506102e061157d565b005b3480156102ee57600080fd5b506102f7611588565b005b34801561030557600080fd5b5061033a600480360381019080803573ffffffffffffffffffffffffffffffffffffffff16906020019092919050505061165a565b005b34801561034857600080fd5b506103a3600480360381019080803590602001908201803590602001908080601f01602080910402602001604051908101604052809392919081815260200183838082843782019150505050505091929192905050506116e3565b60405180868152602001806020018581526020018473ffffffffffffffffffffffffffffffffffffffff1673ffffffffffffffffffffffffffffffffffffffff1681526020018373ffffffffffffffffffffffffffffffffffffffff1673ffffffffffffffffffffffffffffffffffffffff168152602001828103825286818151815260200191508051906020019080838360005b83811015610453578082015181840152602081019050610438565b50505050905090810190601f1680156104805780820380516001836020036101000a031916815260200191505b50965050505050505060405180910390f35b34801561049e57600080fd5b506104d3600480360381019080803573ffffffffffffffffffffffffffffffffffffffff169060200190929190505050611a29565b604051808215151515815260200191505060405180910390f35b3480156104f957600080fd5b50610554600480360381019080803590602001908201803590602001908080601f0160208091040260200160405190810160405280939291908181526020018383808284378201915050505050509192919290505050611a46565b005b34801561056257600080fd5b5061056b611cfd565b604051808273ffffffffffffffffffffffffffffffffffffffff1673ffffffffffffffffffffffffffffffffffffffff16815260200191505060405180910390f35b3480156105b957600080fd5b506105ee600480360381019080803573ffffffffffffffffffffffffffffffffffffffff169060200190929190505050611d26565b604051808215151515815260200191505060405180910390f35b34801561061457600080fd5b5061061d611d43565b604051808215151515815260200191505060405180910390f35b34801561064357600080fd5b5061069e600480360381019080803590602001908201803590602001908080601f0160208091040260200160405190810160405280939291908181526020018383808284378201915050505050509192919290505050611d9a565b005b3480156106ac57600080fd5b506106e1600480360381019080803573ffffffffffffffffffffffffffffffffffffffff169060200190929190505050612051565b005b3480156106ef57600080fd5b5061074a600480360381019080803590602001908201803590602001908080601f01602080910402602001604051908101604052809392919081815260200183838082843782019150505050505091929192905050506120da565b60405180898152602001806020018873ffffffffffffffffffffffffffffffffffffffff1673ffffffffffffffffffffffffffffffffffffffff1681526020018773ffffffffffffffffffffffffffffffffffffffff1673ffffffffffffffffffffffffffffffffffffffff1681526020018060200180602001806020018060200186810386528d818151815260200191508051906020019080838360005b838110156108045780820151818401526020810190506107e9565b50505050905090810190601f1680156108315780820380516001836020036101000a031916815260200191505b5086810385528a818151815260200191508051906020019080838360005b8381101561086a57808201518184015260208101905061084f565b50505050905090810190601f1680156108975780820380516001836020036101000a031916815260200191505b50868103845289818151815260200191508051906020019080838360005b838110156108d05780820151818401526020810190506108b5565b50505050905090810190601f1680156108fd5780820380516001836020036101000a031916815260200191505b50868103835288818151815260200191508051906020019080838360005b8381101561093657808201518184015260208101905061091b565b50505050905090810190601f1680156109635780820380516001836020036101000a031916815260200191505b50868103825287818151815260200191508051906020019080838360005b8381101561099c578082015181840152602081019050610981565b50505050905090810190601f1680156109c95780820380516001836020036101000a031916815260200191505b509d505050505050505050505050505060405180910390f35b3480156109ee57600080fd5b50610b81600480360381019080803590602001908201803590602001908080601f0160208091040260200160405190810160405280939291908181526020018383808284378201915050505050509192919290803573ffffffffffffffffffffffffffffffffffffffff169060200190929190803590602001908201803590602001908080601f0160208091040260200160405190810160405280939291908181526020018383808284378201915050505050509192919290803590602001908201803590602001908080601f0160208091040260200160405190810160405280939291908181526020018383808284378201915050505050509192919290803590602001908201803590602001908080601f0160208091040260200160405190810160405280939291908181526020018383808284378201915050505050509192919290803590602001908201803590602001908080601f01602080910402602001604051908101604052809392919081815260200183838082843782019150505050505091929192905050506127ca565b005b348015610b8f57600080fd5b50610b98612de5565b005b348015610ba657600080fd5b50610bdb600480360381019080803573ffffffffffffffffffffffffffffffffffffffff169060200190929190505050612df0565b005b348015610be957600080fd5b50610c44600480360381019080803590602001908201803590602001908080601f0160208091040260200160405190810160405280939291908181526020018383808284378201915050505050509192919290505050612e0f565b005b6000610c5133611a29565b1515610cc5576040517f08c379a000000000000000000000000000000000000000000000000000000000815260040180806020018281038252601e8152602001807f4d73672e73656e646572206973206e6f74206120506861726d6163697374000081525060200191505060405180910390fd5b8160046006811115610cd357fe5b6005826040518082805190602001908083835b602083101515610d0b5780518252602082019150602081019050602083039250610ce6565b6001836020036101000a0380198251168184511680821785525050505050509050019150509081526020016040518091039020600a0160009054906101000a900460ff166006811115610d5a57fe5b141515610df5576040517f08c379a00000000000000000000000000000000000000000000000000000000081526004018080602001828103825260228152602001807f4974656d206e6f74206469737061746368656420746f2044697374726962757481526020017f6f7200000000000000000000000000000000000000000000000000000000000081525060400191505060405180910390fd5b339150816005846040518082805190602001908083835b602083101515610e315780518252602082019150602081019050602083039250610e0c565b6001836020036101000a038019825116818451168082178552505050505050905001915050908152602001604051809103902060020160006101000a81548173ffffffffffffffffffffffffffffffffffffffff021916908373ffffffffffffffffffffffffffffffffffffffff160217905550816005846040518082805190602001908083835b602083101515610ede5780518252602082019150602081019050602083039250610eb9565b6001836020036101000a038019825116818451168082178552505050505050905001915050908152602001604051809103902060050160006101000a81548173ffffffffffffffffffffffffffffffffffffffff021916908373ffffffffffffffffffffffffffffffffffffffff160217905550600580846040518082805190602001908083835b602083101515610f8b5780518252602082019150602081019050602083039250610f66565b6001836020036101000a0380198251168184511680821785525050505050509050019150509081526020016040518091039020600a0160006101000a81548160ff02191690836006811115610fdc57fe5b02179055507f89ef2ee05286991a00adbb85e73bb526c84c497bdda84f032d533852e396b699836040518080602001828103825283818151815260200191508051906020019080838360005b83811015611043578082015181840152602081019050611028565b50505050905090810190601f1680156110705780820380516001836020036101000a031916815260200191505b509250505060405180910390a1505050565b600061108d33611d26565b1515611101576040517f08c379a000000000000000000000000000000000000000000000000000000000815260040180806020018281038252601f8152602001807f4d73672e73656e646572206973206e6f742061206469737472696275746f720081525060200191505060405180910390fd5b816002600681111561110f57fe5b6005826040518082805190602001908083835b6020831015156111475780518252602082019150602081019050602083039250611122565b6001836020036101000a0380198251168184511680821785525050505050509050019150509081526020016040518091039020600a0160009054906101000a900460ff16600681111561119657fe5b14151561120b576040517f08c379a00000000000000000000000000000000000000000000000000000000081526004018080602001828103825260128152602001807f4974656d20696e2050726f64756374696f6e000000000000000000000000000081525060200191505060405180910390fd5b339150816005846040518082805190602001908083835b6020831015156112475780518252602082019150602081019050602083039250611222565b6001836020036101000a038019825116818451168082178552505050505050905001915050908152602001604051809103902060020160006101000a81548173ffffffffffffffffffffffffffffffffffffffff021916908373ffffffffffffffffffffffffffffffffffffffff160217905550816005846040518082805190602001908083835b6020831015156112f457805182526020820191506020810190506020830392506112cf565b6001836020036101000a038019825116818451168082178552505050505050905001915050908152602001604051809103902060040160006101000a81548173ffffffffffffffffffffffffffffffffffffffff021916908373ffffffffffffffffffffffffffffffffffffffff16021790555060036005846040518082805190602001908083835b6020831015156113a2578051825260208201915060208101905060208303925061137d565b6001836020036101000a0380198251168184511680821785525050505050509050019150509081526020016040518091039020600a0160006101000a81548160ff021916908360068111156113f357fe5b02179055507ffe5d89fa50f8422a1e20fd016012bff210226834552285f9d317db3954f01767836040518080602001828103825283818151815260200191508051906020019080838360005b8381101561145a57808201518184015260208101905061143f565b50505050905090810190601f1680156114875780820380516001836020036101000a031916815260200191505b509250505060405180910390a1505050565b60006114af8260016130c690919063ffffffff16565b9050919050565b6114be611d43565b15156114c957600080fd5b6114d1611cfd565b73ffffffffffffffffffffffffffffffffffffffff16ff5b6114f23361315a565b565b6114fd33611499565b1515611571576040517f08c379a000000000000000000000000000000000000000000000000000000000815260040180806020018281038252601f8152602001807f4d73672e73656e646572206d757374206265204d616e7566616374757265720081525060200191505060405180910390fd5b61157a816131d4565b50565b6115863361324e565b565b611590611d43565b151561159b57600080fd5b600073ffffffffffffffffffffffffffffffffffffffff166000809054906101000a900473ffffffffffffffffffffffffffffffffffffffff1673ffffffffffffffffffffffffffffffffffffffff167f5c486528ec3e3f0ea91181cff8116f02bfa350e03b8b6f12e00765adbb5af85c60405160405180910390a360008060006101000a81548173ffffffffffffffffffffffffffffffffffffffff021916908373ffffffffffffffffffffffffffffffffffffffff160217905550565b61166333611d26565b15156116d7576040517f08c379a000000000000000000000000000000000000000000000000000000000815260040180806020018281038252601f8152602001807f4d73672e73656e646572206973206e6f742061206469737472696275746f720081525060200191505060405180910390fd5b6116e0816132c8565b50565b6000606060008060006005866040518082805190602001908083835b60208310151561172457805182526020820191506020810190506020830392506116ff565b6001836020036101000a03801982511681845116808217855250505050505090500191505090815260200160405180910390206000015494506005866040518082805190602001908083835b6020831015156117955780518252602082019150602081019050602083039250611770565b6001836020036101000a03801982511681845116808217855250505050505090500191505090815260200160405180910390206001018054600181600116156101000203166002900480601f01602080910402602001604051908101604052809291908181526020018280546001816001161561010002031660029004801561185f5780601f106118345761010080835404028352916020019161185f565b820191906000526020600020905b81548152906001019060200180831161184257829003601f168201915b505050505093506005866040518082805190602001908083835b60208310151561189e5780518252602082019150602081019050602083039250611879565b6001836020036101000a0380198251168184511680821785525050505050509050019150509081526020016040518091039020600a0160009054906101000a900460ff1660068111156118ed57fe5b92506005866040518082805190602001908083835b6020831015156119275780518252602082019150602081019050602083039250611902565b6001836020036101000a038019825116818451168082178552505050505050905001915050908152602001604051809103902060040160009054906101000a900473ffffffffffffffffffffffffffffffffffffffff1691506005866040518082805190602001908083835b6020831015156119b85780518252602082019150602081019050602083039250611993565b6001836020036101000a038019825116818451168082178552505050505050905001915050908152602001604051809103902060050160009054906101000a900473ffffffffffffffffffffffffffffffffffffffff16905084848484849450945094509450945091939590929450565b6000611a3f8260036130c690919063ffffffff16565b9050919050565b611a4f33611499565b1515611ac3576040517f08c379a000000000000000000000000000000000000000000000000000000000815260040180806020018281038252601f8152602001807f4d73672e73656e646572206d757374206265204d616e7566616374757265720081525060200191505060405180910390fd5b8060016006811115611ad157fe5b6005826040518082805190602001908083835b602083101515611b095780518252602082019150602081019050602083039250611ae4565b6001836020036101000a0380198251168184511680821785525050505050509050019150509081526020016040518091039020600a0160009054906101000a900460ff166006811115611b5857fe5b141515611bcd576040517f08c379a00000000000000000000000000000000000000000000000000000000081526004018080602001828103825260168152602001807f4974656d206e6f74206d616e756661637475726564210000000000000000000081525060200191505060405180910390fd5b60026005836040518082805190602001908083835b602083101515611c075780518252602082019150602081019050602083039250611be2565b6001836020036101000a0380198251168184511680821785525050505050509050019150509081526020016040518091039020600a0160006101000a81548160ff02191690836006811115611c5857fe5b02179055507f364c544d26582b239e52b1cdca82fe41152e04160c6845d90f15d2b8e46d742f826040518080602001828103825283818151815260200191508051906020019080838360005b83811015611cbf578082015181840152602081019050611ca4565b50505050905090810190601f168015611cec5780820380516001836020036101000a031916815260200191505b509250505060405180910390a15050565b60008060009054906101000a900473ffffffffffffffffffffffffffffffffffffffff16905090565b6000611d3c8260026130c690919063ffffffff16565b9050919050565b60008060009054906101000a900473ffffffffffffffffffffffffffffffffffffffff1673ffffffffffffffffffffffffffffffffffffffff163373ffffffffffffffffffffffffffffffffffffffff1614905090565b611da333611a29565b1515611e17576040517f08c379a000000000000000000000000000000000000000000000000000000000815260040180806020018281038252601e8152602001807f4d73672e73656e646572206973206e6f74206120506861726d6163697374000081525060200191505060405180910390fd5b8060056006811115611e2557fe5b6005826040518082805190602001908083835b602083101515611e5d5780518252602082019150602081019050602083039250611e38565b6001836020036101000a0380198251168184511680821785525050505050509050019150509081526020016040518091039020600a0160009054906101000a900460ff166006811115611eac57fe5b141515611f21576040517f08c379a00000000000000000000000000000000000000000000000000000000081526004018080602001828103825260118152602001807f4974656d206e6f7420726563656976656400000000000000000000000000000081525060200191505060405180910390fd5b60066005836040518082805190602001908083835b602083101515611f5b5780518252602082019150602081019050602083039250611f36565b6001836020036101000a0380198251168184511680821785525050505050509050019150509081526020016040518091039020600a0160006101000a81548160ff02191690836006811115611fac57fe5b02179055507fadcb788ec28b220fb1473f5d89b9d13da1189d02a2b5327870e5f211ba2678f8826040518080602001828103825283818151815260200191508051906020019080838360005b83811015612013578082015181840152602081019050611ff8565b50505050905090810190601f1680156120405780820380516001836020036101000a031916815260200191505b509250505060405180910390a15050565b61205a33611a29565b15156120ce576040517f08c379a000000000000000000000000000000000000000000000000000000000815260040180806020018281038252601e8152602001807f4d73672e73656e646572206973206e6f74206120506861726d6163697374000081525060200191505060405180910390fd5b6120d781613342565b50565b600060606000806060806060806005896040518082805190602001908083835b60208310151561211f57805182526020820191506020810190506020830392506120fa565b6001836020036101000a03801982511681845116808217855250505050505090500191505090815260200160405180910390206000015497506005896040518082805190602001908083835b602083101515612190578051825260208201915060208101905060208303925061216b565b6001836020036101000a03801982511681845116808217855250505050505090500191505090815260200160405180910390206001018054600181600116156101000203166002900480601f01602080910402602001604051908101604052809291908181526020018280546001816001161561010002031660029004801561225a5780601f1061222f5761010080835404028352916020019161225a565b820191906000526020600020905b81548152906001019060200180831161223d57829003601f168201915b505050505096506005896040518082805190602001908083835b6020831015156122995780518252602082019150602081019050602083039250612274565b6001836020036101000a038019825116818451168082178552505050505050905001915050908152602001604051809103902060020160009054906101000a900473ffffffffffffffffffffffffffffffffffffffff1695506005896040518082805190602001908083835b60208310151561232a5780518252602082019150602081019050602083039250612305565b6001836020036101000a038019825116818451168082178552505050505050905001915050908152602001604051809103902060030160009054906101000a900473ffffffffffffffffffffffffffffffffffffffff1694506005896040518082805190602001908083835b6020831015156123bb5780518252602082019150602081019050602083039250612396565b6001836020036101000a03801982511681845116808217855250505050505090500191505090815260200160405180910390206006018054600181600116156101000203166002900480601f0160208091040260200160405190810160405280929190818152602001828054600181600116156101000203166002900480156124855780601f1061245a57610100808354040283529160200191612485565b820191906000526020600020905b81548152906001019060200180831161246857829003601f168201915b505050505093506005896040518082805190602001908083835b6020831015156124c4578051825260208201915060208101905060208303925061249f565b6001836020036101000a03801982511681845116808217855250505050505090500191505090815260200160405180910390206007018054600181600116156101000203166002900480601f01602080910402602001604051908101604052809291908181526020018280546001816001161561010002031660029004801561258e5780601f106125635761010080835404028352916020019161258e565b820191906000526020600020905b81548152906001019060200180831161257157829003601f168201915b505050505092506005896040518082805190602001908083835b6020831015156125cd57805182526020820191506020810190506020830392506125a8565b6001836020036101000a03801982511681845116808217855250505050505090500191505090815260200160405180910390206008018054600181600116156101000203166002900480601f0160208091040260200160405190810160405280929190818152602001828054600181600116156101000203166002900480156126975780601f1061266c57610100808354040283529160200191612697565b820191906000526020600020905b81548152906001019060200180831161267a57829003601f168201915b505050505091506005896040518082805190602001908083835b6020831015156126d657805182526020820191506020810190506020830392506126b1565b6001836020036101000a03801982511681845116808217855250505050505090500191505090815260200160405180910390206009018054600181600116156101000203166002900480601f0160208091040260200160405190810160405280929190818152602001828054600181600116156101000203166002900480156127a05780601f10612775576101008083540402835291602001916127a0565b820191906000526020600020905b81548152906001019060200180831161278357829003601f168201915b50505050509050878787878787878797509750975097509750975097509750919395975091939597565b6127d333611499565b1515612847576040517f08c379a000000000000000000000000000000000000000000000000000000000815260040180806020018281038252601f8152602001807f4d73672e73656e646572206d757374206265204d616e7566616374757265720081525060200191505060405180910390fd5b846005876040518082805190602001908083835b602083101515612880578051825260208201915060208101905060208303925061285b565b6001836020036101000a038019825116818451168082178552505050505050905001915050908152602001604051809103902060030160006101000a81548173ffffffffffffffffffffffffffffffffffffffff021916908373ffffffffffffffffffffffffffffffffffffffff160217905550836005876040518082805190602001908083835b60208310151561292d5780518252602082019150602081019050602083039250612908565b6001836020036101000a0380198251168184511680821785525050505050509050019150509081526020016040518091039020600601908051906020019061297692919061368f565b50826005876040518082805190602001908083835b6020831015156129b0578051825260208201915060208101905060208303925061298b565b6001836020036101000a038019825116818451168082178552505050505050905001915050908152602001604051809103902060070190805190602001906129f992919061368f565b50816005876040518082805190602001908083835b602083101515612a335780518252602082019150602081019050602083039250612a0e565b6001836020036101000a03801982511681845116808217855250505050505090500191505090815260200160405180910390206008019080519060200190612a7c92919061368f565b50806005876040518082805190602001908083835b602083101515612ab65780518252602082019150602081019050602083039250612a91565b6001836020036101000a03801982511681845116808217855250505050505090500191505090815260200160405180910390206009019080519060200190612aff92919061368f565b50856005876040518082805190602001908083835b602083101515612b395780518252602082019150602081019050602083039250612b14565b6001836020036101000a03801982511681845116808217855250505050505090500191505090815260200160405180910390206001019080519060200190612b8292919061368f565b506004546005876040518082805190602001908083835b602083101515612bbe5780518252602082019150602081019050602083039250612b99565b6001836020036101000a038019825116818451168082178552505050505050905001915050908152602001604051809103902060000181905550846005876040518082805190602001908083835b602083101515612c315780518252602082019150602081019050602083039250612c0c565b6001836020036101000a038019825116818451168082178552505050505050905001915050908152602001604051809103902060020160006101000a81548173ffffffffffffffffffffffffffffffffffffffff021916908373ffffffffffffffffffffffffffffffffffffffff16021790555060016005876040518082805190602001908083835b602083101515612cdf5780518252602082019150602081019050602083039250612cba565b6001836020036101000a0380198251168184511680821785525050505050509050019150509081526020016040518091039020600a0160006101000a81548160ff02191690836006811115612d3057fe5b02179055506001600454016004819055507f43c02f307f7657d58a6ca4d44d71b0c5c4d14fa13164129eb1d68386f476d38f866040518080602001828103825283818151815260200191508051906020019080838360005b83811015612da3578082015181840152602081019050612d88565b50505050905090810190601f168015612dd05780820380516001836020036101000a031916815260200191505b509250505060405180910390a1505050505050565b612dee336133bc565b565b612df8611d43565b1515612e0357600080fd5b612e0c81613436565b50565b612e1833611d26565b1515612e8c576040517f08c379a000000000000000000000000000000000000000000000000000000000815260040180806020018281038252601f8152602001807f4d73672e73656e646572206973206e6f742061206469737472696275746f720081525060200191505060405180910390fd5b8060036006811115612e9a57fe5b6005826040518082805190602001908083835b602083101515612ed25780518252602082019150602081019050602083039250612ead565b6001836020036101000a0380198251168184511680821785525050505050509050019150509081526020016040518091039020600a0160009054906101000a900460ff166006811115612f2157fe5b141515612f96576040517f08c379a00000000000000000000000000000000000000000000000000000000081526004018080602001828103825260118152602001807f4974656d206e6f7420726563656976656400000000000000000000000000000081525060200191505060405180910390fd5b60046005836040518082805190602001908083835b602083101515612fd05780518252602082019150602081019050602083039250612fab565b6001836020036101000a0380198251168184511680821785525050505050509050019150509081526020016040518091039020600a0160006101000a81548160ff0219169083600681111561302157fe5b02179055507f9136d979e9dc454c4a9b8dae99bb8ba8c954fb0dd0516c513854fca2fafc0547826040518080602001828103825283818151815260200191508051906020019080838360005b8381101561308857808201518184015260208101905061306d565b50505050905090810190601f1680156130b55780820380516001836020036101000a031916815260200191505b509250505060405180910390a15050565b60008073ffffffffffffffffffffffffffffffffffffffff168273ffffffffffffffffffffffffffffffffffffffff161415151561310357600080fd5b8260000160008373ffffffffffffffffffffffffffffffffffffffff1673ffffffffffffffffffffffffffffffffffffffff16815260200190815260200160002060009054906101000a900460ff16905092915050565b61316e81600361353090919063ffffffff16565b7f9d17ec7e57a5118cf27abf33370bcc6f007c27a9706ab4cc473a76fe552447d281604051808273ffffffffffffffffffffffffffffffffffffffff1673ffffffffffffffffffffffffffffffffffffffff16815260200191505060405180910390a150565b6131e88160016135df90919063ffffffff16565b7f561138658ca49a8540dc70dcfe64c9026c1c5b9344642242dd6562970f9c127881604051808273ffffffffffffffffffffffffffffffffffffffff1673ffffffffffffffffffffffffffffffffffffffff16815260200191505060405180910390a150565b61326281600261353090919063ffffffff16565b7f126174f6cf49c81cdb4a9214c6b8f037bef55b4ec31e4fc776cea2a1c8a88d5981604051808273ffffffffffffffffffffffffffffffffffffffff1673ffffffffffffffffffffffffffffffffffffffff16815260200191505060405180910390a150565b6132dc8160026135df90919063ffffffff16565b7fddbf200aa634dc3fb81cfd68583dd1040d1c751d335e1d86b631bde3e977fea881604051808273ffffffffffffffffffffffffffffffffffffffff1673ffffffffffffffffffffffffffffffffffffffff16815260200191505060405180910390a150565b6133568160036135df90919063ffffffff16565b7f5a4264410853372bdd7255ebc9624cb523fc039cd6f9f1855165194738125f6381604051808273ffffffffffffffffffffffffffffffffffffffff1673ffffffffffffffffffffffffffffffffffffffff16815260200191505060405180910390a150565b6133d081600161353090919063ffffffff16565b7f2fed5abf6a80d6dfe30b4895481b2fc5d7dce5f8f7b931832f4a2947d5040c7f81604051808273ffffffffffffffffffffffffffffffffffffffff1673ffffffffffffffffffffffffffffffffffffffff16815260200191505060405180910390a150565b600073ffffffffffffffffffffffffffffffffffffffff168173ffffffffffffffffffffffffffffffffffffffff161415151561347257600080fd5b8073ffffffffffffffffffffffffffffffffffffffff166000809054906101000a900473ffffffffffffffffffffffffffffffffffffffff1673ffffffffffffffffffffffffffffffffffffffff167f5c486528ec3e3f0ea91181cff8116f02bfa350e03b8b6f12e00765adbb5af85c60405160405180910390a3806000806101000a81548173ffffffffffffffffffffffffffffffffffffffff021916908373ffffffffffffffffffffffffffffffffffffffff16021790555050565b600073ffffffffffffffffffffffffffffffffffffffff168173ffffffffffffffffffffffffffffffffffffffff161415151561356c57600080fd5b61357682826130c6565b151561358157600080fd5b60008260000160008373ffffffffffffffffffffffffffffffffffffffff1673ffffffffffffffffffffffffffffffffffffffff16815260200190815260200160002060006101000a81548160ff0219169083151502179055505050565b600073ffffffffffffffffffffffffffffffffffffffff168173ffffffffffffffffffffffffffffffffffffffff161415151561361b57600080fd5b61362582826130c6565b15151561363157600080fd5b60018260000160008373ffffffffffffffffffffffffffffffffffffffff1673ffffffffffffffffffffffffffffffffffffffff16815260200190815260200160002060006101000a81548160ff0219169083151502179055505050565b828054600181600116156101000203166002900490600052602060002090601f016020900481019282601f106136d057805160ff19168380011785556136fe565b828001600101855582156136fe579182015b828111156136fd5782518255916020019190600101906136e2565b5b50905061370b919061370f565b5090565b61373191905b8082111561372d576000816000905550600101613715565b5090565b905600a165627a7a72305820f3bbb8f90209c444b8e6d55ca3ef295c98264bb856683cb0823c40c8cd5264dc0029",
  "source": "pragma solidity ^0.4.24;\r\n\r\nimport \"../MedicineAccesscontrol/DistributorRole.sol\";\r\nimport \"../MedicineAccesscontrol/ManufacturerRole.sol\";\r\nimport \"../MedicineAccesscontrol/PharmacistRole.sol\";\r\nimport \"../Medicinecore/Ownable.sol\";\r\n\r\n\r\n// Define a contract 'Supplychain'\r\ncontract SupplyChain is Ownable, ManufacturerRole, DistributorRole, PharmacistRole {\r\n\r\n// // Define a variable called 'ndc' for National Drug Code (NDC)\r\n// uint  ndc;\r\n\r\n// // Define a variable called 'sku' for Stock Keeping Unit (SKU)\r\nuint  sku;\r\n\r\n// Define a public mapping 'items' that maps the NDC to an Item.\r\nmapping (string => Item) items;\r\n\r\n// Define a public mapping 'itemsHistory' that maps the NDC to an array of TxHash,\r\n// that track its journey through the supply chain -- to be sent from DApp.\r\nmapping (uint => string[]) itemsHistory;\r\n\r\n// Define enum 'State' with the following values:\r\nenum State\r\n{\r\n\r\n  Ordered,  //0\r\n  Manufactured, //1\r\n  MfrDispatched, //2\r\n  DistrReceived, //3\r\n  DistrDispatched, //4\r\n  PharReceived, //5\r\n  Dispensed   //6\r\n  }\r\nState constant defaultState = State.Manufactured;\r\n\r\n// Define a struct 'Item' with the following fields:\r\nstruct Item {\r\n\r\n  uint    sku;  // Stock Keeping Unit (SKU)\r\n  string    ndc; //  National Drug Code (NDC) generated by the Manufacturer(10 digit), goes on the package, n be used for verification\r\n\r\n  address ownerID;  // Metamask-Ethereum address of the current owner as the product moves through stages\r\n  address manufacturerID;\r\n  address distributorID;  // Metamask-Ethereum address of the Distributor\r\n  address pharmacistID; // Metamask-Ethereum address of the Pharmacist\r\n\r\n  string  productID;  // Product ID\r\n  string  productDescription; // Product Description\r\n  string  productFormName; // Product Form like Tablet,Injection\r\n  string  productLabelerName; // Product Manufacturer Details\r\n  //uint    productPrice; // Product Price\r\n\r\n  State   itemState;  // Product State as represented in the enum above\r\n \r\n}\r\n // Define events with the same state values and accept 'ndc' as input argument\r\n\r\n event Ordered(string ndc);\r\n event Manufactured(string ndc);\r\n event MfrDispatched(string ndc);\r\n event DistrReceived(string ndc);\r\n event DistrDispatched(string ndc);\r\n event PharReceived(string ndc);\r\n event Dispensed(string ndc);\r\n\r\n  //Define a modifier that checks if an item.state of a ndc is Manufactured\r\n\r\n  modifier manufactured(string _ndc) {\r\n    require(items[_ndc].itemState == State.Manufactured,\"Item not manufactured!\");\r\n    _;\r\n  }\r\n\r\n  // Define a modifier that checks if an item.state of a ndc is Ordered\r\n  modifier ordered(string _ndc) {\r\n    require(items[_ndc].itemState == State.Ordered,\"Item not ordered\");\r\n    _;\r\n  }\r\n\r\n  // Define a modifier that checks if an item.state of a ndc is Received\r\n  modifier distReceived(string _ndc) {\r\n    require(items[_ndc].itemState == State.DistrReceived,\"Item not received\");\r\n    _;\r\n  }\r\n\r\n  // Define a modifier that checks if an item.state of a ndc is MfrDispatched\r\n  modifier mfrDispatch(string _ndc) {\r\n    require(items[_ndc].itemState == State.MfrDispatched,\"Item in Production\");\r\n    _;\r\n  }\r\n\r\n  modifier distDispatch(string _ndc) {\r\n    require(items[_ndc].itemState == State.DistrDispatched,\"Item not dispatched to Distributor\");\r\n    _;\r\n  }\r\n\r\n  modifier pharReceived(string _ndc) {\r\n    require(items[_ndc].itemState == State.PharReceived,\"Item not received\");\r\n    _;\r\n  }\r\n\r\n  // Define a modifier that checks if an item.state of a ndc is Dispensed\r\n  modifier dispenseItem(string _ndc) {\r\n    require(items[_ndc].itemState == State.Dispensed,\"Item not dispensed\");\r\n    _;\r\n  }\r\n\r\n\r\n  // In the constructor set 'owner' to the address that instantiated the contract\r\n  // and set 'sku' to 1\r\n  constructor() public payable {\r\n  sku = 1;\r\n  }\r\n\r\n  // Define a function 'kill' if required\r\n  function kill() public onlyOwner(){\r\n    \r\n      selfdestruct(owner());\r\n    \r\n  }\r\n\r\n//Define a function 'manufactureItem' that allows a Maufacturer to mark it as 'Manufactured'\r\n\r\nfunction manufactureItem(string _ndc,address _manufacturerID, \r\nstring memory _productID, string memory _productDescription, \r\nstring memory _productFormName, string memory _productLabelerName) public onlyManufacturer \r\n {\r\n  items[_ndc].manufacturerID = _manufacturerID;\r\n  items[_ndc].productID = _productID;\r\n  items[_ndc].productDescription = _productDescription;\r\n  items[_ndc].productFormName = _productFormName;\r\n  items[_ndc].productLabelerName = _productLabelerName;\r\n  //items[_ndc].productPrice = _productPrice;\r\n  items[_ndc].ndc = _ndc;\r\n  items[_ndc].sku = sku;\r\n  items[_ndc].ownerID = _manufacturerID;\r\n  items[_ndc].itemState = State.Manufactured;\r\n  sku = sku + 1;\r\n  emit Manufactured(_ndc);\r\n}\r\n\r\n//Define a function 'dispatchItem' that allows a Manufacturer to mark it as MfrDispatched\r\n\r\nfunction dispatchItemToDistr(string _ndc) public onlyManufacturer manufactured(_ndc){\r\n  items[_ndc].itemState = State.MfrDispatched;\r\n  emit MfrDispatched(_ndc);\r\n}\r\n\r\n//Define a function 'receiveItem' that allows a Distributor to mark it as Received\r\n\r\nfunction distrReceiveItem(string _ndc) public onlyDistributor mfrDispatch(_ndc) {\r\n  address receiver = msg.sender;\r\n  items[_ndc].ownerID = receiver;\r\n  items[_ndc].distributorID = receiver;\r\n  items[_ndc].itemState = State.DistrReceived;\r\n  emit DistrReceived(_ndc);\r\n}\r\n\r\nfunction dispatchItemToPharmacist(string _ndc) public onlyDistributor distReceived(_ndc) {\r\n  items[_ndc].itemState = State.DistrDispatched;\r\n  emit DistrDispatched(_ndc);\r\n}\r\n\r\nfunction pharReceiveItem(string _ndc) public onlyPharmacist\r\ndistDispatch(_ndc) {\r\n  address receiver = msg.sender;\r\n  items[_ndc].ownerID = receiver;\r\n  items[_ndc].pharmacistID = receiver;\r\n  items[_ndc].itemState = State.PharReceived;\r\n  emit PharReceived(_ndc);\r\n}\r\n\r\nfunction dispenseToConsumer(string _ndc) public onlyPharmacist\r\npharReceived(_ndc) {\r\n  items[_ndc].itemState = State.Dispensed;\r\n  emit Dispensed(_ndc);\r\n}\r\n\r\n// Define a function 'fetchItemBufferOne' that fetches the data\r\nfunction fetchItemBufferOne(string _ndc) public view returns\r\n(\r\nuint    itemSKU,\r\nstring    itemNDC,\r\naddress ownerID,\r\naddress manufacturerID,\r\nstring  memory productID,\r\nstring  memory productDescription,\r\nstring  memory productFormName,\r\nstring  memory productLabelerName\r\n)\r\n{\r\n// Assign values to the 8 parameters\r\nitemSKU = items[_ndc].sku;\r\nitemNDC = items[_ndc].ndc;\r\nownerID = items[_ndc].ownerID;\r\nmanufacturerID = items[_ndc].manufacturerID;\r\nproductID = items[_ndc].productID;\r\nproductDescription = items[_ndc].productDescription;\r\nproductFormName = items[_ndc].productFormName;\r\nproductLabelerName = items[_ndc].productLabelerName;\r\nreturn\r\n(\r\nitemSKU,\r\nitemNDC,\r\nownerID,\r\nmanufacturerID,\r\nproductID,\r\nproductDescription,\r\nproductFormName,\r\nproductLabelerName\r\n);\r\n}\r\n// Define a function 'fetchItemBufferTwo' that fetches the data\r\nfunction fetchItemBufferTwo(string _ndc) public view returns\r\n(\r\nuint    itemSKU,\r\nstring    itemNDC,\r\nuint    itemState,\r\naddress distributorID,\r\naddress pharmacistID\r\n)\r\n{\r\n  // Assign values to the 9 parameters\r\n  itemSKU = items[_ndc].sku;\r\nitemNDC = items[_ndc].ndc;\r\nitemState = uint(items[_ndc].itemState);\r\ndistributorID = items[_ndc].distributorID;\r\npharmacistID = items[_ndc].pharmacistID;\r\nreturn\r\n(\r\nitemSKU,\r\nitemNDC,\r\nitemState,\r\ndistributorID,\r\npharmacistID\r\n);\r\n}\r\n}",
  "sourcePath": "D:\\Medical supply chain\\Medical DApp\\contracts\\MedicineBase\\SupplyChain.sol",
  "compiler": {
    "name": "solc",
    "version": "0.4.24+commit.e67f0147.Emscripten.clang"
  },
  "schemaVersion": "3.4.9",
  "updatedAt": "2022-08-20T18:24:04.222Z",
  "networkType": "ethereum",
  "devdoc": {
    "methods": {}
  },
  "userdoc": {
    "methods": {
      "isOwner()": {
        "notice": "Check if the calling address is the owner of the contract\r"
      },
      "owner()": {
        "notice": "Look up the address of the owner\r"
      },
      "renounceOwnership()": {
        "notice": "Define a function to renounce ownerhip\r"
      },
      "transferOwnership(address)": {
        "notice": "Define a public function to transfer ownership\r"
      }
    }
  }
}